:100000000C9434000C9451000C9451000C94510049
:100010000C9451000C9451000C9451000C9451001C
:100020000C9451000C9451000C9451000C9451000C
:100030000C9451000C9451000C9451000C945100FC
:100040000C9451000C9451000C9434030C94510006
:100050000C9451000C9451000C9451000C945100DC
:100060000C9451000C94510011241FBECFEFD8E026
:10007000DEBFCDBF11E0A0E0B1E0E4E0F7E002C0F8
:1000800005900D92A637B107D9F721E0A6E7B1E0B8
:1000900001C01D92A238B207E1F70E9442020C94FF
:1000A00080030C94000084B1807F84B98BB180629E
:1000B0008BB98BB18F7B8BB982E08A95F1F700C049
:1000C0008BB180618BB992E09A95F1F700C083B152
:1000D0008295807F92E09A95F1F700C09BB19F7E58
:1000E0009BB995E09A95F1F700009BB190619BB99F
:1000F00092E09A95F1F700C093B1807892E09A95DA
:10010000F1F700C09BB19F7E9BB995E09A95F1F7FE
:1001100000008111D5CF8BB18F7D8BB984B18F60F9
:1001200084B90895282F22952F708F70611104C013
:100130009BB19F7B9BB903C09BB190649BB992E03C
:100140009A95F1F700C09BB190619BB995B1907FF2
:10015000922B95B995E09A95F1F700009BB19F7E9F
:100160009BB995E09A95F1F700009BB190619BB91E
:1001700095B1907F892B85B985E08A95F1F70000CC
:100180008BB18F7E8BB995E09A95F1F700000E94B4
:10019000530008950F931F93CF93DF93EC011CC07E
:1001A0008532B1F48E010F5F1F4F898180538830F3
:1001B00028F461E00E949200E8010DC061E085E250
:1001C0000E94920061E089810E949200E80103C0D0
:1001D00061E00E949200219688818111E1CFDF9138
:1001E000CF911F910F910895EF92FF920F931F935C
:1001F000CF93DF9300D000D01F92CDB7DEB77B0145
:10020000FE01319625E0DF011D922A95E9F724E0F1
:1002100030E00FC06AE070E00E945803E1E0F0E0D7
:10022000EC0FFD1FE20FF31F8083862F972F2150C5
:100230003109009779F7BFEFEB16FB0681F403C095
:100240000F5F1F4F02C000E010E0E1E0F0E0EC0FB4
:10025000FD1FE00FF11F2081222391F304C005E070
:1002600010E00E191F09992394F461E08DE20E94B9
:1002700092000DC0E1E0F0E0EC0FFD1FE00FF11F78
:10028000808161E0805D0E9492000F5F1F4F05300A
:10029000110584F30F900F900F900F900F90DF9146
:1002A000CF911F910F91FF90EF900895843178F4D2
:1002B000623031F0633031F0613029F4806403C082
:1002C0008C5E01C08C5A60E080680E9492000895A4
:1002D000CF93C82F2FEF86E791E0215080409040C8
:1002E000E1F700C0000084B18F6084B98AB18061F9
:1002F0008AB98AB180648AB98AB180628AB985B1C3
:10030000807F85B98BB18F7E8BB98BB18F7D8BB997
:100310008BB18F7B8BB900C000C000008BB18061B6
:100320008BB985B1826085B925E02A95F1F7000087
:100330008BB18F7E8BB985E08A95F1F700000E9422
:10034000530060E08C2F8C600E94920060E088E295
:100350000E94920060E080E00E945601CF910895D3
:100360001092C50087E68093C40088E98093C1009D
:1003700086E08093C200789408958091C00088231D
:10038000E4F78091C6000895EAE7F0E08081806894
:1003900080838081876080838081806480830895EA
:1003A00080917E0190917F01019749F461E080E0A6
:1003B0000E94560184E091E00E94CA00089561E025
:1003C00080E00E94560181E191E00E94CA000895F8
:1003D00060E081E00E9492000E94D00162E080E033
:1003E0000E94560182E291E00E94CA0063E081E02F
:1003F0000E9456018FE291E00E94CA008091800124
:100400009091810190937B0180937A01809100010A
:1004100090910101909303018093020185B1806165
:1004200085B985B18F7185B9089560E081E00E943A
:1004300092000E94D00162E080E00E94560182E2B8
:1004400091E00E94CA0063E080E00E9456018BE4C4
:1004500091E00E94CA008091800190918101909367
:100460007B0180937A01809100019091010190932A
:1004700003018093020185B1826285B985B18F72D3
:1004800085B90895E9E6F0E08081836080838DB3CB
:1004900081608DBB78940E94B00184B1826084B980
:1004A00084B1846084B90E94C40181E00E94680123
:1004B00080917601909177010497E1F460E08DE0FE
:1004C0000E94560189E691E00E94CA0060E080E83F
:1004D0000E94920060E08CE00E94920060E080E068
:1004E0000E9456018BE691E00E94CA0010927701AB
:1004F00010927601ECE7F0E08081807F808380813C
:100500008F738083EAE7F0E080818064808380914C
:100510007A0086FDFCCF80917800909179009093CD
:100520007D0180937C014F9B07C081E090E0909318
:100530007F0180937E0106C082E090E090937F016E
:1005400080937E0180917E0190917F01019799F4C3
:1005500080917C0190917D018536910538F081E094
:1005600090E0909301018093000119C01092010165
:100570001092000114C080917C0190917D01893717
:10058000910538F083E090E09093010180930001A1
:1005900006C082E090E090930101809300012091D9
:1005A0007A0130917B01809180019091810128171F
:1005B000390761F42091020130910301809100011B
:1005C000909101012817390709F472CF8091000139
:1005D00090910101019731F080910001909101010A
:1005E000039719F40E94150263CF809180019091C6
:1005F0008101019719F40E9415025ACF0E94E80167
:1006000057CF0E94BD0190E09093790180937801CB
:1006100080917801909179018134910590F48091D5
:1006200078019091790161E070E00E94F40080917E
:1006300076019091770101969093770180937601EE
:10064000089580917801909179018134910539F470
:1006500081E090E090938101809380010895109251
:1006600081011092800108951F920F920FB60F9290
:1006700011242F933F934F935F936F937F938F93A7
:100680009F93AF93BF93EF93FF930E940103FF915A
:10069000EF91BF91AF919F918F917F916F915F91FA
:1006A0004F913F912F910F900FBE0F901F90189573
:1006B00097FB072E16F4009407D077FD09D00E940F
:1006C0006C0307FC05D03EF4909581959F4F0895EB
:1006D000709561957F4F0895AA1BBB1B51E107C020
:1006E000AA1FBB1FA617B70710F0A61BB70B881FC2
:1006F000991F5A95A9F780959095BC01CD01089551
:04070000F894FFCF9B
:10070400050004004D6F64653A2046727569747380
:10071400004D6F64653A20566567657461626C6567
:100724007300466F6F64205374617475733A0045A7
:100734006469626C65202020202020202020202055
:10074400202020202020202020200053706F696C5E
:10075400656420202020202020202020202020200C
:10076400202020202020202000670057656967682A
:0607740074203D2000008E
:00000001FF
